{
  "_format": "hh-sol-artifact-1",
  "contractName": "Bank",
  "sourceName": "contracts/Bank.sol",
  "abi": [
    {
      "inputs": [],
      "stateMutability": "nonpayable",
      "type": "constructor"
    },
    {
      "inputs": [],
      "name": "bankName",
      "outputs": [
        {
          "internalType": "string",
          "name": "",
          "type": "string"
        }
      ],
      "stateMutability": "view",
      "type": "function"
    },
    {
      "inputs": [],
      "name": "bankOwner",
      "outputs": [
        {
          "internalType": "address",
          "name": "",
          "type": "address"
        }
      ],
      "stateMutability": "view",
      "type": "function"
    },
    {
      "inputs": [
        {
          "internalType": "address",
          "name": "",
          "type": "address"
        }
      ],
      "name": "customerBalance",
      "outputs": [
        {
          "internalType": "uint256",
          "name": "",
          "type": "uint256"
        }
      ],
      "stateMutability": "view",
      "type": "function"
    },
    {
      "inputs": [],
      "name": "depositMoney",
      "outputs": [],
      "stateMutability": "payable",
      "type": "function"
    },
    {
      "inputs": [],
      "name": "getBankBalance",
      "outputs": [
        {
          "internalType": "uint256",
          "name": "",
          "type": "uint256"
        }
      ],
      "stateMutability": "view",
      "type": "function"
    },
    {
      "inputs": [],
      "name": "getCustomerBalance",
      "outputs": [
        {
          "internalType": "uint256",
          "name": "",
          "type": "uint256"
        }
      ],
      "stateMutability": "view",
      "type": "function"
    },
    {
      "inputs": [
        {
          "internalType": "string",
          "name": "_name",
          "type": "string"
        }
      ],
      "name": "setBankName",
      "outputs": [],
      "stateMutability": "nonpayable",
      "type": "function"
    },
    {
      "inputs": [
        {
          "internalType": "address payable",
          "name": "_to",
          "type": "address"
        },
        {
          "internalType": "uint256",
          "name": "_amount",
          "type": "uint256"
        }
      ],
      "name": "withdrawMoney",
      "outputs": [],
      "stateMutability": "nonpayable",
      "type": "function"
    }
  ],
  "bytecode": "0x608060405234801561001057600080fd5b50336000806101000a81548173ffffffffffffffffffffffffffffffffffffffff021916908373ffffffffffffffffffffffffffffffffffffffff160217905550610d05806100606000396000f3fe60806040526004361061007b5760003560e01c80637b83b50b1161004e5780637b83b50b1461011b578063a853409a14610146578063e147aaa714610171578063f274c8971461019c5761007b565b806316c05aa21461008057806327d358011461008a57806337ebe47b146100b557806370142690146100f2575b600080fd5b6100886101c5565b005b34801561009657600080fd5b5061009f61024f565b6040516100ac91906109bc565b60405180910390f35b3480156100c157600080fd5b506100dc60048036038101906100d7919061070c565b6102dd565b6040516100e99190610a5e565b60405180910390f35b3480156100fe57600080fd5b5061011960048036038101906101149190610771565b6102f5565b005b34801561012757600080fd5b5061013061039d565b60405161013d9190610a5e565b60405180910390f35b34801561015257600080fd5b5061015b610434565b6040516101689190610a5e565b60405180910390f35b34801561017d57600080fd5b5061018661047b565b60405161019391906109a1565b60405180910390f35b3480156101a857600080fd5b506101c360048036038101906101be9190610735565b61049f565b005b6000341415610209576040517f08c379a0000000000000000000000000000000000000000000000000000000008152600401610200906109fe565b60405180910390fd5b34600260003373ffffffffffffffffffffffffffffffffffffffff1673ffffffffffffffffffffffffffffffffffffffff16815260200190815260200160002081905550565b6001805461025c90610bba565b80601f016020809104026020016040519081016040528092919081815260200182805461028890610bba565b80156102d55780601f106102aa576101008083540402835291602001916102d5565b820191906000526020600020905b8154815290600101906020018083116102b857829003601f168201915b505050505081565b60026020528060005260406000206000915090505481565b60008054906101000a900473ffffffffffffffffffffffffffffffffffffffff1673ffffffffffffffffffffffffffffffffffffffff163373ffffffffffffffffffffffffffffffffffffffff1614610383576040517f08c379a000000000000000000000000000000000000000000000000000000000815260040161037a906109de565b60405180910390fd5b80600190805190602001906103999291906105c2565b5050565b60008060009054906101000a900473ffffffffffffffffffffffffffffffffffffffff1673ffffffffffffffffffffffffffffffffffffffff163373ffffffffffffffffffffffffffffffffffffffff161461042e576040517f08c379a000000000000000000000000000000000000000000000000000000000815260040161042590610a1e565b60405180910390fd5b47905090565b6000600260003373ffffffffffffffffffffffffffffffffffffffff1673ffffffffffffffffffffffffffffffffffffffff16815260200190815260200160002054905090565b60008054906101000a900473ffffffffffffffffffffffffffffffffffffffff1681565b600260003373ffffffffffffffffffffffffffffffffffffffff1673ffffffffffffffffffffffffffffffffffffffff16815260200190815260200160002054811115610521576040517f08c379a000000000000000000000000000000000000000000000000000000000815260040161051890610a3e565b60405180910390fd5b80600260003373ffffffffffffffffffffffffffffffffffffffff1673ffffffffffffffffffffffffffffffffffffffff16815260200190815260200160002060008282546105709190610af6565b925050819055508173ffffffffffffffffffffffffffffffffffffffff166108fc829081150290604051600060405180830381858888f193505050501580156105bd573d6000803e3d6000fd5b505050565b8280546105ce90610bba565b90600052602060002090601f0160209004810192826105f05760008555610637565b82601f1061060957805160ff1916838001178555610637565b82800160010185558215610637579182015b8281111561063657825182559160200191906001019061061b565b5b5090506106449190610648565b5090565b5b80821115610661576000816000905550600101610649565b5090565b600061067861067384610aaa565b610a79565b90508281526020810184848401111561069057600080fd5b61069b848285610b78565b509392505050565b6000813590506106b281610c8a565b92915050565b6000813590506106c781610ca1565b92915050565b600082601f8301126106de57600080fd5b81356106ee848260208601610665565b91505092915050565b60008135905061070681610cb8565b92915050565b60006020828403121561071e57600080fd5b600061072c848285016106a3565b91505092915050565b6000806040838503121561074857600080fd5b6000610756858286016106b8565b9250506020610767858286016106f7565b9150509250929050565b60006020828403121561078357600080fd5b600082013567ffffffffffffffff81111561079d57600080fd5b6107a9848285016106cd565b91505092915050565b6107bb81610b2a565b82525050565b60006107cc82610ada565b6107d68185610ae5565b93506107e6818560208601610b87565b6107ef81610c79565b840191505092915050565b6000610807602b83610ae5565b91507f596f75206d757374206265207468652062616e6b206f776e657220746f20736560008301527f7420746865206e616d65210000000000000000000000000000000000000000006020830152604082019050919050565b600061086d602183610ae5565b91507f596f75206e65656420746f20736f6d6520616d6f756e74206f66206d6f6e657960008301527f21000000000000000000000000000000000000000000000000000000000000006020830152604082019050919050565b60006108d3602c83610ae5565b91507f596f75206d757374206265207468652062616e6b206f776e657220746f20676560008301527f7442616e6b42616c616e636500000000000000000000000000000000000000006020830152604082019050919050565b6000610939602783610ae5565b91507f596f75206861766520696e73756666696369656e74206d6f6e657920746f207760008301527f69746864726177000000000000000000000000000000000000000000000000006020830152604082019050919050565b61099b81610b6e565b82525050565b60006020820190506109b660008301846107b2565b92915050565b600060208201905081810360008301526109d681846107c1565b905092915050565b600060208201905081810360008301526109f7816107fa565b9050919050565b60006020820190508181036000830152610a1781610860565b9050919050565b60006020820190508181036000830152610a37816108c6565b9050919050565b60006020820190508181036000830152610a578161092c565b9050919050565b6000602082019050610a736000830184610992565b92915050565b6000604051905081810181811067ffffffffffffffff82111715610aa057610a9f610c4a565b5b8060405250919050565b600067ffffffffffffffff821115610ac557610ac4610c4a565b5b601f19601f8301169050602081019050919050565b600081519050919050565b600082825260208201905092915050565b6000610b0182610b6e565b9150610b0c83610b6e565b925082821015610b1f57610b1e610bec565b5b828203905092915050565b6000610b3582610b4e565b9050919050565b6000610b4782610b4e565b9050919050565b600073ffffffffffffffffffffffffffffffffffffffff82169050919050565b6000819050919050565b82818337600083830152505050565b60005b83811015610ba5578082015181840152602081019050610b8a565b83811115610bb4576000848401525b50505050565b60006002820490506001821680610bd257607f821691505b60208210811415610be657610be5610c1b565b5b50919050565b7f4e487b7100000000000000000000000000000000000000000000000000000000600052601160045260246000fd5b7f4e487b7100000000000000000000000000000000000000000000000000000000600052602260045260246000fd5b7f4e487b7100000000000000000000000000000000000000000000000000000000600052604160045260246000fd5b6000601f19601f8301169050919050565b610c9381610b2a565b8114610c9e57600080fd5b50565b610caa81610b3c565b8114610cb557600080fd5b50565b610cc181610b6e565b8114610ccc57600080fd5b5056fea26469706673582212200b68f00fbb83cbf121d35f52b21c692a8827ae41a523f8a04bfa051d9f9316e964736f6c63430008000033",
  "linkReferences": {},
  "deployedLinkReferences": {}
}